:020000040040BA
:10000000D82440203D114000ED114000ED1140008A
:10001000ED114000ED114000ED1140000000000026
:10002000000000000000000000000000ED11400092
:10003000ED11400000000000ED114000ED11400006
:10004000ED114000ED114000ED114000ED114000B8
:10005000ED114000ED114000ED114000ED114000A8
:10006000ED11400000000000B1084000C908400048
:10007000E1084000ED114000ED114000ED1140009D
:10008000F908400011094000ED114000ED11400059
:10009000ED114000ED114000ED114000ED11400068
:1000A000ED114000ED114000ED114000ED11400058
:1000B000ED114000ED114000ED114000ED11400048
:1000C000ED114000ED114000ED114000ED11400038
:1000D00000000000ED11400000000000ED114000A4
:1000E000ED114000ED114000ED114000ED11400018
:1000F000ED114000ED114000ED114000ED11400008
:10010000ED114000ED114000ED114000ED114000F7
:10011000ED114000000000000000000000000000A1
:10012000ED114000ED114000ED114000ED114000D7
:10013000ED11400000000000ED114000ED11400005
:1001400010B5054C237833B9044B13B10448AFF311
:1001500000800123237010BD4004402000000000F7
:10016000901D4000084B10B51BB108490848AFF37B
:1001700000800848036803B910BD074B002BFBD073
:10018000BDE81040184700BF0000000044044020B4
:10019000901D4000901D40000000000080B582B01E
:1001A00000AF78607B68072B31D801A252F823F0AA
:1001B0000D024000D1014000D9014000E1014000A2
:1001C000E9014000F1014000F90140000302400054
:1001D0000020114B98471AE001200F4B984716E07A
:1001E00000200E4B984712E010200C4B98470EE071
:1001F00020200A4B98470AE03E210020084B9847F0
:1002000005E03E210120064B984700E000BF00BFFB
:100210000837BD4680BD00BF290A4000950A40004E
:10022000050B400080B582B000AF78607B68072B7B
:1002300026D801A252F823F0590240005D02400086
:100240005D0240006F0240006F0240006F024000FC
:100250006F0240006F024000012312E00B4B9847F1
:100260000346002B14BF01230023DBB209E0084B37
:1002700098470346002B14BF01230023DBB200E0A4
:10028000002318460837BD4680BD00BF610A400004
:100290007D0B400080B483B000AF78607B68072B93
:1002A00025D801A252F823F0C9024000CF02400035
:1002B000D5024000DB024000DF024000E3024000C4
:1002C000E7024000EB0240004FF4FA4310E04FF425
:1002D00000430DE04FF400430AE0084B08E0084BF0
:1002E00006E0084B04E0074B02E0064B00E0002369
:1002F00018460C37BD465DF8047B704700093D0089
:1003000000127A00001BB70080B582B000AF034630
:10031000FB7100BFFB791846054B9847034683F0F5
:100320000103DBB2002BF5D100BF0837BD4680BD0D
:100330002502400080B586B000AFF8607A603B606F
:100340000B46FB727B68002B07D13B68002B04D166
:10035000FB684FF470021A6019E0FB7A18460E4BE6
:10036000984702467B68B2FBF3F37B617B693A688E
:1003700002FB03F37B613B68013B1A04074B13400C
:100380007A68D2B2134343F47C52FB681A6000BF10
:100390001837BD4680BD00BF950240000000FF0732
:1003A00080B582B000AF786039603B68002B08D11F
:1003B000094B9847094A7B681B6843F000539362D6
:1003C00005E0064A7B681B6843F48033D36100BFB5
:1003D0000837BD4680BD00BF990B400000060E40A7
:1003E00080B582B000AF78607B68002B03D1054BED
:1003F0009847034602E0044B9847034618460837DF
:10040000BD4680BDB50B4000D10B400080B582B029
:1004100000AF0346FB71FB79033B042B08D8FB7943
:100420001846064B9847FB791846054B984700E05D
:1004300000BF00BF0837BD4680BD00BF9D01400022
:100440000903400080B582B000AF786000BF7868D3
:10045000044B98470346002BF9D000231846083771
:10046000BD4680BDE103400080B500AF0620054BCE
:100470009847024613469B0013449A0013441846BB
:1004800080BD00BF9502400080B500AF024B984789
:100490000346184680BD00BF6904400090B583B094
:1004A00000AF1348134B98470620134B9847381D4D
:1004B000192301220621114CA0473B1D002118469B
:1004C0000F4B984700200F4B984702200E4B984740
:1004D00000200E4B98470E4B98470E4B984703460B
:1004E0001846044B984700BF0C37BD4690BD00BF6F
:1004F00000A3E111611340000D04400035034000EA
:10050000A10340004504400029094000A50940001E
:10051000F51140008904400080B485B000AFF86058
:10052000B9607A607B68002B03D0FB68BA685A66B2
:1005300002E0FB68BA681A6600BF1437BD465DF872
:10054000047B704780B483B000AF786039607B680B
:100550003A681A6300BF0C37BD465DF8047B7047EC
:1005600080B483B000AF786039607B683A685A63C2
:1005700000BF0C37BD465DF8047B704780B584B082
:1005800000AFF860B9607A60B968F868194B9847AD
:100590007B6803F001031A46B968F868164B984760
:1005A0007B6803F00A03002B03D0FB68BA681A6269
:1005B00002E0FB68BA685A627B6803F00203002B12
:1005C00004D0FB68BA68C3F8802008E07B6803F0B9
:1005D0000803002B03D0FB68BA68C3F88420FB68CB
:1005E000BA685A61FB68BA681A6000BF1037BD4626
:1005F00080BD00BF110740001905400080B584B0E0
:1006000000AFF860B9607A603B60B968F868124B77
:100610009847BA69B968F868104B98473B68002B4F
:1006200003D0FB68BA681A6502E0FB68BA685A65CD
:100630007B68002B03D0FB68BA681A6302E0FB6892
:10064000BA685A63FB68BA681A61FB68BA681A60CC
:1006500000BF1037BD4680BD11074000190540009E
:1006600080B483B000AF786039607B689A6B3B6878
:100670001340002B01D1002300E0012318460C3762
:10068000BD465DF8047B704780B485B000AFF8606C
:10069000B9607A607B6803F01003002B20D0FB6800
:1006A000BA68C3F8B0207B6803F02003002B04D0A5
:1006B000FB68BA68C3F8D42003E0FB68BA68C3F8E3
:1006C000D0207B6803F04003002B04D0FB68BA689D
:1006D000C3F8C02008E0FB68BA68C3F8C42003E090
:1006E000FB68BA68C3F8B42000BF1437BD465DF894
:1006F000047B704780B483B000AF786039607B685A
:100700003A681A6400BF0C37BD465DF8047B704739
:1007100080B483B000AF786039607B683A685A640F
:1007200000BF0C37BD465DF8047B704780B483B0D2
:1007300000AF78607B68DB6C18460C37BD465DF80F
:10074000047B704780B483B000AF78607B689B6C9B
:1007500018460C37BD465DF8047B704780B584B001
:1007600000AF786039607868264B9847F860786801
:10077000254B98470246FB681340FB60FB68002B43
:100780003CD00023BB6034E0204ABB681B0113440B
:100790001A683B689A4226D11C4ABB681B01134465
:1007A00004331A68FB681340002B1CD0174ABB683F
:1007B0001B0113440C331B681449BA6812010A4424
:1007C00010681249BA6812010A44043212681146CC
:1007D00098470E4ABB681B01134404331B68DB4374
:1007E000FA681340FB60BB680133BB60BB68062B33
:1007F00003D8FB68002BC7D100E000BF00BF103753
:10080000BD4680BD2D074000450740005C044020E8
:1008100080B586B000AFF860B9607A603B60214B6C
:100820001B68062B01D9012338E00023FB7511E07A
:10083000FB7D1B011C4A13443B613B691A68BB6882
:100840009A4204D13B695A687B689A4208D0FB7D82
:100850000133FB75FA7D134B1B689A42E8D900E01F
:1008600000BF3B69BA681A603B697A685A603B69A5
:100870003A689A603B693A6ADA60FA7D094B1B680C
:1008800001339A4204D1074B1B680133054A1360B8
:100890003A687968F868054B984700231846183776
:1008A000BD4680BDCC0440205C0440208906400049
:1008B00080B500AF0A210248024B984700BF80BDB7
:1008C000000E0E405D07400080B500AF0B210248CE
:1008D000024B984700BF80BD00100E405D074000EE
:1008E00080B500AF0C210248024B984700BF80BD85
:1008F00000120E405D07400080B500AF1021024895
:10090000024B984700BF80BD00140E405D074000B9
:1009100080B500AF11210248024B984700BF80BD4F
:1009200000160E405D07400080B483B000AF7860D1
:100930007B68013B032B1AD801A252F823F000BFB9
:1009400051094000570940005F0940006709400015
:1009500000237B600EE04FF480737B600AE04FF46D
:1009600040737B6006E04FF400737B6002E000237D
:100970007B6000BF0A490A4B1B6B23F440727B6803
:1009800013430B6300BF064B9B6E03F00803002B61
:10099000F9D000BF0C37BD465DF8047B704700BF3F
:1009A00000060E4080B485B000AF78601D491D4B35
:1009B0001B6B23F070027B6813430B634FF480536F
:1009C000FB6007E0FB68002B01D1012323E0FB68FB
:1009D000013BFB60134B9B6E03F00803002BF1D02F
:1009E000104A104B1B6B23F0030343F00203136305
:1009F0004FF48053FB6007E0FB68002B01D101231B
:100A000009E0FB68013BFB60064B9B6E03F00803AB
:100A1000002BF1D0002318461437BD465DF8047B47
:100A2000704700BF00060E4080B483B000AF78600E
:100A30007B68012B05D10749064B9A68064B134387
:100A40008B60044B054A1A6000BF0C37BD465DF849
:100A5000047B704710180E40000010A5080000A588
:100A600080B400AF094B5B6903F08003002B07D013
:100A7000074B9B6E03F08003002B01D0012300E0A5
:100A800000231846BD465DF8047B704710180E40E1
:100A900000060E4080B483B000AF78601549154B56
:100AA0001A6A154B13430B6200BF124B9B6E03F483
:100AB0000033002BF9D00F490E4B1A6A0F4B13402D
:100AC0007A68134343F45C130B6200BF094B9B6EBF
:100AD00003F40033002BF9D00649064B1A6A084B81
:100AE000134043F45C130B6200BF0C37BD465DF846
:100AF000047B704700060E40080037008FFFC8FFD8
:100B0000FFFFC8FE80B483B000AF786039607B68B7
:100B1000002B08D01349134B1B6A134A1A40134B7E
:100B200013430B6218E00F490E4B1A6A104B134027
:100B30003A68120292B21A430E4B13430B6200BF83
:100B4000084B9B6E03F00103002BF9D00549054BC0
:100B50001A6A094B13430B6200BF0C37BD465DF8A0
:100B6000047B704700060E40FCFFC8FE0200370100
:100B7000FCFFC8FF010037000000370180B400AF60
:100B8000044B9B6E03F480331846BD465DF8047B2E
:100B9000704700BF00060E4080B400AF044B4FF01A
:100BA00000529A6200BFBD465DF8047B704700BFEB
:100BB00000060E4080B400AF044B9B6E03F00203AE
:100BC0001846BD465DF8047B704700BF00060E4026
:100BD00080B400AF044B9B6E03F040031846BD4643
:100BE0005DF8047B704700BF00060E4080B483B000
:100BF00000AF78607B683F2B01D901232FE07B6831
:100C00001F2B13D8194B9A6901217B6801FA03F352
:100C10001A4001217B6801FA03F39A421ED0134A5D
:100C200001217B6801FA03F3136117E07B68203B25
:100C30007B600E4BD3F8082101217B6801FA03F396
:100C40001A4001217B6801FA03F39A4206D0074A51
:100C500001217B6801FA03F3C2F800310023184632
:100C60000C37BD465DF8047B704700BF00060E40A0
:100C700080B483B000AF7860044A7B68136000BF23
:100C80000C37BD465DF8047B704700BF1000402064
:100C900080B483B000AF204B1B6F7B607B6823F474
:100CA000C0037B607B6843F480037B601A4A7B68E7
:100CB00013671949184B1A6A184B13430B6200BF8C
:100CC000154B9B6E03F00803002BF9D000237B60CB
:100CD00003E000BF7B6801337B607B68B3F5FA7F7C
:100CE000F7D300BF0C4B1B6A03F00803002BF9D0AD
:100CF000094B1B6F7B607B6823F4C0037B607B68C0
:100D000043F480037B60044A7B68136700BF0C37A1
:100D1000BD465DF8047B704700060E4004003700B6
:100D200090B599B000AF78607B68013B042B00F26E
:100D3000A38101A252F823F04D0D40004D0D40005B
:100D4000690D4000690D400057104000714A714B19
:100D50001B6923F0040313616F4B01221A70BFF368
:100D60005F8F62B630BF87E17B68032B03D1002021
:100D70006A4B984703E04FF40010684B984772B6EF
:100D8000BFF35F8F644B00221A70654B01221A700B
:100D90007B68042B0CBF01230023DAB207F11C038C
:100DA0003B6507F11803FB6407F11403BB6407F10B
:100DB00010037B6407F10C033B64134687F82F3064
:100DC000584B1B6ABB62574B1B6B7B62564B1B68B5
:100DD0003B623B6D002B02D03B6DBA6A1A60FB6C24
:100DE000002B03D04F4B9A6AFB6C1A60BB6C002B34
:100DF00002D0BB6C00221A607B6C002B02D07B6C93
:100E00007A6A1A603B6C002B02D03B6C3A6A1A601B
:100E10004449BA6A454B13430B627B6A03F00303F0
:100E2000012B0ED97B6A23F0030343F001037B629D
:100E30003C4A7B6A13633B4B9B6E03F00803002B19
:100E4000F9D07B6A03F07003002B0CD07B6A23F08F
:100E500070037B62334A7B6A1363324B9B6E03F0F1
:100E60000803002BF9D0324B98472E4B9B6E03F4AE
:100E70000033002BF9D02B492A4B1A6A2D4B134013
:100E800043F45C130B62274B9B6E03F48033002BFF
:100E9000F9D0254A3B6A23F47063136097F82F302A
:100EA000002B07D01F491F4B1A6A234B134043F4F2
:100EB0005C130B62184B01221A70BFF35F8F62B68E
:100EC0001E4B984772B6BFF35F8F134B00221A7008
:100ED000FC69B86979693A69FB68FC65B865796548
:100EE000FA63BB6300237B63FB6D03F00203002BFB
:100EF0002CD00C490B4B1B6A114A1A40114B13435F
:100F00000B620849074B1A6A0F4B134043F45C13FA
:100F10000B624EE000ED00E00C004020710C400040
:100F2000D004402000060E40000C0E4008003700A0
:100F3000990B4000FFFFC8FEFEFFC8FF910C400068
:100F4000FCFFC8FE0200370187FFC8FFFB6D03F0FE
:100F50000103002B2DD04A4B1B6A03F00103002B29
:100F60000DD14749464B1B6A464A1A40464B13432C
:100F70000B62434B9B6E03F00103002BF9D0404BF7
:100F80001B6A03F08073002B0BD13D493C4B1A6A5E
:100F90003E4B13430B623A4B9B6E03F48033002BA2
:100FA000F9D03749364B1A6A394B134043F45C1376
:100FB0000B62BA6D374B1340002B08D0304ABB6D23
:100FC00043F0005393627B6B43F002037B63FB6B44
:100FD00003F00303022B05D1294B9B6E03F00203A0
:100FE000002BF9D0264B1B6B3B6325493B6B23F051
:100FF0007002FB6B03F0700313430B63204B9B6E7B
:1010000003F00803002BF9D0234ABB6B13601C4A82
:10101000FB6B13631A4B9B6E03F00803002BF9D094
:10102000174B9A6E7B6B1340002BF9D01B4B0022A1
:101030001A701B4B1B68002B05D0194B1B68984777
:10104000174B00221A60174B01221A70BFF35F8FF3
:1010500062B600BF10E0144A134B1B6943F004034F
:101060001361124B124A1A600E4B01221A70BFF321
:101070005F8F62B630BF00BF00BF6437BD4690BD12
:1010800000060E40FCFFC8FF0100370000003701DA
:1010900087FFC8FF0000FF07000C0E40D00440206F
:1010A000D40440200C00402000ED00E010180E4059
:1010B000040000A580B483B000AFEFF310837B6021
:1010C0007B68002B0CBF01230023DBB23B6072B6B0
:1010D000BFF35F8F044B00221A703B6818460C3731
:1010E000BD465DF8047B70470C00402080B483B09F
:1010F00000AF78607B68002B14BF01230023DBB2B4
:1011000018460C37BD465DF8047B704780B582B049
:1011100000AF78607868074B98470346002B05D0EE
:10112000054B01221A70BFF35F8F62B600BF08370C
:10113000BD4680BDED1040000C00402080B584B05D
:1011400000AF1E4BFB601E4BBB60FA68BB689A4247
:101150000CD007E0BB681A1DBA60FA68111DF9606F
:1011600012681A60BB68174A9342F3D3164BBB60F0
:1011700004E0BB681A1DBA6000221A60BB68134AFB
:101180009342F6D3124BFB60124AFB6823F07F03B5
:101190009360114B98477860104A104B1B6843F4DA
:1011A00070031360BFF34F8FBFF36F8F78680C4BE2
:1011B00098470C4B98470C4B9847FEE7901D400012
:1011C000000040204004402040044020D80440203B
:1011D0000000400000ED00E0B510400088ED00E0A8
:1011E0000D114000211C40000D17400080B400AFDD
:1011F000FEE700BF80B400AF524B1B6B03F003034C
:10120000012B14D0012B02D3022B38D07AE04E4BA5
:101210005B6903F08003002B04D04C4B4FF4004279
:101220001A606FE0494B4FF4FA421A606AE0454B8E
:101230001B6A03F08073002B03D0444B444A1A60AE
:1012400060E0424B434A1A603E4B1B6A03F0700356
:10125000102B04D0202B08D0002B0ED00EE03B4BDF
:101260001B685B00394A136008E0384B1A68134664
:101270005B001344354A136000E000BF42E0314B8D
:101280001B6A03F08073002B03D0304B304A1A6086
:101290001CE02E4B2F4A1A602A4B1B6A03F0700386
:1012A000102B04D0202B08D0002B0ED00EE0274BA3
:1012B0001B685B00254A136008E0244B1A6813463C
:1012C0005B001344214A136000E000BF1D4B1B6B01
:1012D00003F00303022B14D11A4B9A6A1E4B1340DE
:1012E0001B0C0133194A126802FB03F3174A1360FF
:1012F000144B9B6ADBB2154A1268B2FBF3F3134A34
:10130000136000BF0F4B1B6B03F07003702B08D1F1
:101310000E4B1B68114AA2FB03235B080B4A1360A8
:101320000AE0084B1B6B03F070031B09074A1268A5
:1013300022FA03F3054A136000BFBD465DF8047B43
:10134000704700BF00060E4010180E4014004020E9
:10135000001BB70000093D000000FF07ABAAAAAAC6
:1013600080B483B000AF78607B68194A934204D898
:10137000184B4FF080621A6023E07B68164A934254
:1013800003D8144B154A1A601BE07B68144A934239
:1013900003D8104B134A1A6013E07B68124A934239
:1013A00003D80C4B114A1A600BE07B68104A934239
:1013B00004D8084B4FF004221A6002E0054B0D4A96
:1013C0001A6000BF0C37BD465DF8047B704700BF54
:1013D000FF2C3101000C0E40FF5962020001000495
:1013E000FF86930300020004FFB3C404000300045B
:1013F000FFE0F5050005000480B483B000AF0346AC
:10140000FB71094997F907305B09FA7902F01F026D
:10141000012000FA02F241F8232000BF0C37BD463C
:101420005DF8047B704700BF00E100E080B483B04A
:1014300000AF03463960FB7197F90730002B0BDAD8
:101440000D49FB7903F00F03043B3A68D2B2520115
:10145000D2B20B441A7609E0084997F907303A6886
:10146000D2B25201D2B20B4483F8002300BF0C3732
:10147000BD465DF8047B704700ED00E000E100E050
:1014800080B483B000AF78607B68072B25D801A2B9
:1014900052F823F0B5144000BB144000C1144000C2
:1014A000C7144000CB144000CF144000D3144000B8
:1014B000D71440004FF4FA4310E04FF400430DE01E
:1014C0004FF400430AE0084B08E0084B06E0084BE5
:1014D00004E0074B02E0064B00E0002318460C37FF
:1014E000BD465DF8047B704700093D0000127A009C
:1014F000001BB70080B500AF0620054B9847024699
:1015000013469B0013449A001344184680BD00BF45
:101510008114400080B500AF024B9847034618463F
:1015200080BD00BFF514400080B582B000AF0D480B
:101530000D4B984778604FF480710C480C4B9847DE
:101540000346002B05D04FF480710848094B98479B
:1015500004E04FF480710548074B984700BF0837F7
:10156000BD4680BD000E0E402D07400000120E400B
:1015700061064000610540004505400080B582B02D
:1015800000AF0C480C4B9847786001210B480C4B7E
:1015900098470346002B04D001210848094B98477F
:1015A00003E001210548084B984700BF0837BD46B6
:1015B00080BD00BF00140E402D074000000E0E40FD
:1015C00061064000610540004505400080B582B0DD
:1015D00000AF0D480D4B984778604FF080410A48A6
:1015E0000B4B98470346002B05D04FF0804106482F
:1015F000084B984704E04FF080410348064B98475A
:1016000000BF0837BD4680BD00120E402D074000C8
:1016100061064000610540004505400080B582B08C
:1016200000AF0C480C4B9847786004210B480C4BDA
:1016300098470346002B04D004210848094B9847DB
:1016400003E004210548084B984700BF0837BD4612
:1016500080BD00BF000E0E402D07400000100E4060
:1016600061064000610540004505400090B587B027
:1016700002AFF860B9607A603B60B868064B984783
:10168000002300930023012239687868034CA047A7
:1016900000BF1437BD4690BDED0B4000FD05400076
:1016A00090B587B002AFF860B9607A603B60F868C7
:1016B000104B984709227968B8680F4B98477968AA
:1016C000B8680E4B98473B6A00933B687A68F968A4
:1016D000B8680B4CA047FB685BB21846094B9847AB
:1016E000FB685BB201211846074B984700BF1437CF
:1016F000BD4690BDED0B40007D054000F506400065
:1017000011084000F91340002D1440002DE9F04F5E
:1017100089B002AF6A4B98476A4B4FF400425A6057
:101720004FF48073684A0C210120684CA047684B35
:10173000009350234FF4006266490A20664CA0478C
:101740000123644A0A210020604CA047634B0093A8
:1017500070234FF08052624910205F4CA0474FF039
:101760008043594A0C210120584CA0475D4B0093FF
:1017700050234FF0004254490C20574CA0470423FB
:10178000594A0B210120514CA047584B009320236C
:101790004FF400224F490A204F4CA0474FF480716C
:1017A0004948534B98470220524B98470023FB75FA
:1017B00081E04FF4807144484F4B98474F4B984716
:1017C000034619464FF000020B461446A000F8608D
:1017D000F86840EA9370F8609B00BB60D7E9023478
:1017E000660146EAD3665D01ED1A66EB04066D18E4
:1017F00046EB02066B1946EB06041D4626462946B3
:10180000324641F22B734FF0000411EB030A42EB16
:10181000040B504659463A4C41F22C724FF00003EB
:10182000A04703460C461846364B98474FF4807144
:1018300025482F4B9847314B9847034619464FF0A0
:1018400000020B461446A0007860786840EA937066
:1018500078609B003B60D7E900344FEA441949EABD
:10186000D3694FEA4318B8EB030869EB040918EB96
:10187000010849EB020918EB080349EB09049846F3
:10188000A14641464A4641F22B734FF0000411EB4A
:10189000030A42EB040B50465946194C41F22C7294
:1018A0004FF00003A04703460C461846154B9847D7
:1018B000FB7D0133FB75FB7D052B7FF67AAF6DE772
:1018C0009D04400050180E4000120E406D1640005E
:1018D00029154000000E0E40A11640007D15400065
:1018E00000140E40CD15400000100E401D164000A3
:1018F00045054000210D40006105400015154000E0
:10190000091940000100402053B94AB9002908BF15
:1019100000281CBF4FF0FF314FF0FF3000F07EB9C0
:10192000ADF1080C6DE904CE00F006F8DDF804E036
:10193000DDE9022304B070472DE9F0478C460E46DE
:101940000446089D002B50D18A4217466CD9B2FA42
:1019500082FEBEF1000F0BD0CEF1200420FA04F479
:1019600001FA0EF644EA060C02FA0EF700FA0EF43B
:101970004FEA1749220CBCFBF9F01FFA87F809FB64
:1019800010C642EA064600FB08F3B34209D9F6192D
:1019900000F1FF3280F02281B34240F21F81023811
:1019A0003E44F61AA2B2B6FBF9F309FB136642EA0B
:1019B000064403FB08F8A04509D9E41903F1FF32F6
:1019C00080F00A81A04540F20781023B3C44C8EB0D
:1019D000040443EA00400021002D62D024FA0EF4F2
:1019E00000232C606B60BDE8F0878B4207D9002D87
:1019F00055D0002185E841000846BDE8F087B3FADC
:101A000083F1002940F09080B34202D3824200F279
:101A1000F880841A66EB03060120B446002D40D0FE
:101A200085E81010BDE8F08712B90127B7FBF2F77F
:101A3000B7FA87FEBEF1000F35D1F31B4FEA174806
:101A40001FFA87FC0121B3FBF8F0220C08FB1036CB
:101A500042EA06460CFB00F3B34207D9F61900F13F
:101A6000FF3202D2B34200F2CE801046F61AA2B282
:101A7000B6FBF8F308FB136642EA06440CFB03FCD2
:101A8000A44507D9E41903F1FF3202D2A44500F2BC
:101A9000B5801346CCEB040443EA00409CE729469A
:101AA0002846BDE8F087CEF1200106FA0EF307FACA
:101AB0000EF720FA01F94FEA1748CE4049EA030928
:101AC000B6FBF8FA4FEA194408FB1A661FFA87FCBE
:101AD00044EA06430AFB0CF29A4200FA0EF40AD9D1
:101AE000DB190AF1FF3180F087809A4240F284804E
:101AF000AAF1020A3B449B1A1FFA89F9B3FBF8F1D9
:101B000008FB113349EA034301FB0CF69E4207D957
:101B1000DB1901F1FF326BD29E4269D902393B4495
:101B20009B1B41EA0A418EE7C1F1200E22FA0EF416
:101B30008B40234320FA0EF706FA01F44FEA134CC8
:101B400026FA0EF63C43B6FBFCF9270C0CFB196693
:101B50001FFA83F847EA064609FB08F7B74202FA7C
:101B600001F200FA01FA08D9F61809F1FF3041D262
:101B7000B7423FD9A9F102091E44F61BA0B2B6FB39
:101B8000FCF40CFB146640EA064704FB08F8B84571
:101B900007D9FF1804F1FF3028D2B84526D9023CF6
:101BA0001F4444EA0940C8EB0707A0FB02894F45E0
:101BB00044464E4614D329D065B3BAEB040367EB11
:101BC000060707FA0EFECB40CF404EEA030385E836
:101BD00088000021BDE8F0871346F8E61046E0E6ED
:101BE000B8EB020469EB03060138E5E70446D8E7E1
:101BF000114695E78146C0E78A467CE7023B3C44B4
:101C000048E708460AE702383E442FE7C245E7D3D3
:101C10003E46D1E72946BDE8F08700BF704700BFC8
:101C200070B50F4E0F4D761BB61018BF002405D0AF
:101C3000013455F8043B9847A642F9D10A4E0B4DA2
:101C4000761B00F08FF8B61018BF002406D00134C0
:101C500055F8043B9847A642F9D170BD70BD00BF4E
:101C6000701D4000701D4000781D4000701D400038
:101C7000024B13B1024800F005B8704700000000A5
:101C8000911C4000002301461A46184600F014B883
:101C900038B5074D074C2C1BA41005D0013C55F856
:101CA000043D9847002CF9D1BDE8384000F064B8F5
:101CB000881D4000841D40002DE9F047254C256813
:101CC000D5F848410646884692469946C4B36068AE
:101CD0001F2817DC431C76B104EB80050122C5F8F0
:101CE00088A0D4F8881182401143022EC4F88811CC
:101CF000C5F808911ED00230636044F820800020AF
:101D0000BDE8F087144B03B34FF4C870AFF3008005
:101D10000446D0B1D5F84831002780E88800C5F8DE
:101D2000484138460123C4F88871C4F88C71002EEC
:101D3000E1D0D1E7D4F88C110A43C4F88C21DAE75A
:101D400005F5A674C5F84841C1E74FF0FF30BDE87E
:101D5000F08700BF601D400000000000430000004D
:101D600018004020F8B500BFF8BC08BC9E4670477C
:101D7000711C400065014000F8B500BFF8BC08BC0C
:081D80009E467047410140003E
:081D8800B0FBFF7F0100000029
:101D9000BFF35F8F0138FBD1704700BF0100000027
:101DA0000000200000093D00000000000403402066
:101DB0006C034020D403402000000000000000001D
:101DC0000000000000000000000000000000000013
:101DD0000000000000000000000000005C1D40004A
:101DE00000000000000000000000000000000000F3
:101DF00000000000000000000000000000000000E3
:101E000000000000000000000000000000000000D2
:101E100000000000000000000000000000000000C2
:101E200000000000000000000000000000000000B2
:101E300000000000000000000000000000000000A2
:101E40000000000000000000000000000000000092
:101E500001000000000000000E33CDAB34126DE62F
:101E6000ECDE05000B000000000000000000000098
:101E70000000000000000000000000000000000062
:101E80000000000000000000000000000000000052
:101E90000000000000000000000000000000000042
:101EA0000000000000000000000000000000000032
:040000050040113D69
:00000001FF
