:020000040040BA
:10000000D0244020F5034000F1034000F1034000FC
:10001000F1034000F1034000F10340000000000044
:10002000000000000000000000000000F10340009C
:10003000F103400000000000F1034000F103400024
:10004000F1034000F1034000F1034000F1034000E0
:10005000F1034000F1034000F1034000F1034000D0
:10006000F1034000000000006502400079024000FA
:100070008D024000F1034000F1034000F103400015
:10008000A1024000B5024000F1034000F10340002E
:10009000F1034000F1034000F1034000F103400090
:1000A000F1034000F1034000F1034000F103400080
:1000B000F1034000F1034000F1034000F103400070
:1000C000F1034000F1034000F1034000F103400060
:1000D00000000000F103400000000000F1034000B8
:1000E000F1034000F1034000F1034000F103400040
:1000F000F1034000F1034000F1034000F103400030
:10010000F1034000F1034000F1034000F10340001F
:10011000F1034000000000000000000000000000AB
:10012000F1034000F1034000F1034000F1034000FF
:10013000F103400000000000F1034000F103400023
:1001400010B5054C237833B9044B13B10448AFF311
:1001500000800123237010BD4004402000000000F7
:100160000C084000084B10B51BB108490848AFF314
:1001700000800848036803B910BD074B002BFBD073
:10018000BDE81040184700BF0000000044044020B4
:100190000C0840000C0840000000000010B510489A
:1001A000104B98473E2100200F4B98470F4CA0471B
:1001B0000028FCD00E4B98470E4A0F4B9A620F4C0A
:1001C000A0470028FCD002200D4B984700200D4B83
:1001D00098470D4B98470248024B984710BD00BF07
:1001E00000A3E111E10540006D034000C1034000A0
:1001F000D1034000013F182000060E40E1034000FB
:10020000C902400005034000D1044000C06C7047A3
:10021000806C70472DE9F041044688460E4B9847A4
:10022000054620460D4B9847054013D00C4C04F171
:1002300060062368434508D16168294205D0E36818
:1002400040469847636825EA0305B44202D010345B
:10025000002DEED1BDE8F0810D02400011024000FA
:100260005C04402008B50A210148024B984708BDAC
:10027000000E0E401502400008B50B210148024B4C
:10028000984708BD00100E401502400008B50C212B
:100290000148024B984708BD00120E40150240006D
:1002A00008B510210148024B984708BD00140E40C4
:1002B0001502400008B511210148024B984708BDBE
:1002C00000160E4015024000032807D0042808D06D
:1002D00002280CBF4FF48072002204E04FF44072F9
:1002E00001E04FF4007206490B6B23F44073134393
:1002F0000B630A46936E13F0080FFBD0704700BFE4
:1003000000060E40184A136B23F070031843106365
:10031000936E13F0080F03D009E0013B03D11EE0F8
:100320004FF4805310498A6E12F0080FF5D00E4A30
:10033000136B23F0030343F002031363906E10F07A
:10034000080004D000207047013B03D109E04FF4BE
:10035000805305498A6E12F0080FF5D070470120CE
:1003600070470120704700BF00060E4038B10E49AB
:100370000B6A0E4A1A400E4B13430B6270470A4831
:10038000036A090289B20B4A1A400B4B1343194303
:1003900001620246936E13F0010FFBD0024A116A0C
:1003A000064B0B431362704700060E40FCFFC8FE6D
:1003B00002003701FCFFC8FF0100370000003701D1
:1003C000024B986E00F48030704700BF00060E406C
:1003D0004FF00052014B9A62704700BF00060E407A
:1003E000024B986E00F00200704700BF00060E40FE
:1003F000FEE700BF00B583B0274B284A9A4203D0DE
:10040000274B254A9A4204D3264B274A9A420FD3B8
:100410001AE02149254B5B1A23F0030304331F4ADA
:10042000134452F8040B41F8040B9A42F9D1EBE75C
:100430001F4B204AD21A22F003021A44043B002127
:1004400043F8041B9342FBD11B4A1C4B23F07F0350
:100450009360EFF31083B3FA83F35B09019372B6F1
:10046000BFF35F8F0022164B1A700199154A13686B
:1004700043F470031360BFF34F8FBFF36F8F29B145
:1004800001220F4B1A70BFF35F8F62B60E4B984775
:100490000E4B9847FEE700BF000040200C084000CC
:1004A00040044020CC044020400440203F04402031
:1004B00044044020CF04402000ED00E00000400054
:1004C0000C00402088ED00E0A506400055064000E5
:1004D0003C4B1B6B03F00303012B0FD013B1022B1A
:1004E00029D057E0384B5B6913F0800F14BF4FF4ED
:1004F00000424FF4FA42354B1A604BE0314B1B6A15
:1005000013F0807F03D0324A304B1A6042E0314A08
:100510002E4B1A602B4B1B6A03F07003102B02D07A
:10052000202B04D036E02C4A284B1A6032E0284AAF
:10053000264B1A602EE0234B1B6A13F0807F03D0FA
:10054000234A224B1A6012E0224A204B1A601D4BAC
:100550001B6A03F07003102B02D0202B04D006E09E
:100560001D4A1A4B1A6002E0194A184B1A60154BC3
:100570001B6B03F00303022B0CD1124A936A926A9D
:100580001248C3F30A41036801FB0333D2B2B3FB41
:10059000F2F303600B4B1B6B03F07003702B07D15E
:1005A0000A4A13680D49A1FB03135B0813607047E7
:1005B000044B1B6B0549C3F302120B68D3400B605D
:1005C000704700BF00060E4010180E40100040207B
:1005D000001BB70000093D0000127A00ABAAAAAACE
:1005E000124B984204D84FF08062114B1A6070474A
:1005F000104B984203D8104A0D4B1A6070470F4BAE
:10060000984203D80E4A0A4B1A6070470D4B984225
:1006100003D80D4A064B1A6070470C4B984294BFA2
:100620004FF004220A4A024B1A607047FF2C310136
:10063000000C0E40FF59620200010004FF86930384
:1006400000020004FFB3C40400030004FFE0F5054A
:100650000005000480B50F4B98474FF400420E4B45
:100660005A604FF48052A3F59253103B1A6103F580
:1006700040634FF480721A611A605A63074F084E44
:100680001D463846B0474FF480742C633846B04757
:100690006C63F6E79D01400050180E406BAF0303FA
:1006A0000100402070B50F4E0F4D761BB61018BFDD
:1006B000002405D0013455F8043B9847A642F9D1EF
:1006C0000A4E0B4D761B00F08FF8B61018BF0024B1
:1006D00006D0013455F8043B9847A642F9D170BDC5
:1006E00070BD00BFF4074000F4074000FC07400065
:1006F000F4074000024B13B1024800F005B8704700
:100700000000000015074000002301461A46184665
:1007100000F014B838B5074D074C2C1BA41005D0B9
:10072000013C55F8043D9847002CF9D1BDE838400C
:1007300000F064B80C084000080840002DE9F047BC
:10074000254C2568D5F84841064688469246994684
:10075000C4B360681F2817DC431C76B104EB800526
:100760000122C5F888A0D4F8881182401143022ED6
:10077000C4F88811C5F808911ED00230636044F8AF
:1007800020800020BDE8F087144B03B34FF4C870FD
:10079000AFF300800446D0B1D5F84831002780E897
:1007A0008800C5F8484138460123C4F88871C4F868
:1007B0008C71002EE1D0D1E7D4F88C110A43C4F833
:1007C0008C21DAE705F5A674C5F84841C1E74FF07A
:1007D000FF30BDE8F08700BFE407400000000000E4
:1007E0004300000018004020F8B500BFF8BC08BC6A
:1007F0009E467047F506400065014000F8B500BF11
:0C080000F8BC08BC9E4670474101400057
:10080C00BFF35F8F0138FBD1704700BF01000000C0
:10081C0000093D000000000000000000040340201F
:10082C006C034020D40340200000000000000000B6
:10083C0000000000000000000000000000000000AC
:10084C00000000000000000000000000E007400075
:10085C00000000000000000000000000000000008C
:10086C00000000000000000000000000000000007C
:10087C00000000000000000000000000000000006C
:10088C00000000000000000000000000000000005C
:10089C00000000000000000000000000000000004C
:1008AC00000000000000000000000000000000003C
:1008BC00000000000000000000000000000000002C
:1008CC0001000000000000000E33CDAB34126DE6C9
:1008DC00ECDE05000B000000000000000000000032
:1008EC0000000000000000000000000000000000FC
:1008FC0000000000000000000000000000000000EC
:10090C0000000000000000000000000000000000DB
:10091C0000000000000000000000000000000000CB
:04000005004003F5BF
:00000001FF
